{
  "_format": "hh-sol-artifact-1",
  "contractName": "SupplyChainManagement",
  "sourceName": "contracts/SCM.sol",
  "abi": [
    {
      "inputs": [
        {
          "internalType": "uint256",
          "name": "BankBuyprice",
          "type": "uint256"
        },
        {
          "internalType": "uint256",
          "name": "_CompanySellPrice",
          "type": "uint256"
        }
      ],
      "stateMutability": "nonpayable",
      "type": "constructor"
    },
    {
      "inputs": [],
      "name": "Bank",
      "outputs": [
        {
          "internalType": "address",
          "name": "",
          "type": "address"
        }
      ],
      "stateMutability": "view",
      "type": "function"
    },
    {
      "inputs": [
        {
          "internalType": "uint256",
          "name": "amount",
          "type": "uint256"
        }
      ],
      "name": "BuyStockFromCompany",
      "outputs": [],
      "stateMutability": "payable",
      "type": "function"
    },
    {
      "inputs": [
        {
          "internalType": "uint256",
          "name": "value",
          "type": "uint256"
        }
      ],
      "name": "Invest",
      "outputs": [],
      "stateMutability": "payable",
      "type": "function"
    },
    {
      "inputs": [
        {
          "internalType": "uint256",
          "name": "amount",
          "type": "uint256"
        }
      ],
      "name": "PurchaseStockFromBank",
      "outputs": [],
      "stateMutability": "nonpayable",
      "type": "function"
    },
    {
      "inputs": [],
      "name": "SellAllStocks",
      "outputs": [],
      "stateMutability": "payable",
      "type": "function"
    },
    {
      "inputs": [],
      "name": "Stockinventory",
      "outputs": [
        {
          "internalType": "uint256",
          "name": "",
          "type": "uint256"
        }
      ],
      "stateMutability": "view",
      "type": "function"
    },
    {
      "inputs": [],
      "name": "WithdrawAll",
      "outputs": [],
      "stateMutability": "payable",
      "type": "function"
    },
    {
      "inputs": [],
      "name": "buyPricePerstockFromBank",
      "outputs": [
        {
          "internalType": "uint256",
          "name": "",
          "type": "uint256"
        }
      ],
      "stateMutability": "view",
      "type": "function"
    },
    {
      "inputs": [],
      "name": "currentFunds",
      "outputs": [
        {
          "internalType": "uint256",
          "name": "",
          "type": "uint256"
        }
      ],
      "stateMutability": "view",
      "type": "function"
    },
    {
      "inputs": [],
      "name": "sellPricePerstockFromBank",
      "outputs": [
        {
          "internalType": "uint256",
          "name": "",
          "type": "uint256"
        }
      ],
      "stateMutability": "view",
      "type": "function"
    },
    {
      "inputs": [
        {
          "internalType": "address",
          "name": "_toOwner",
          "type": "address"
        }
      ],
      "name": "transferOwnerShip",
      "outputs": [],
      "stateMutability": "nonpayable",
      "type": "function"
    }
  ],
  "bytecode": "0x60806040523480156200001157600080fd5b5060405162000f3f38038062000f3f8339818101604052810190620000379190620000e4565b336000806101000a81548173ffffffffffffffffffffffffffffffffffffffff021916908373ffffffffffffffffffffffffffffffffffffffff1602179055508160018190555060026001546200008f91906200015a565b60028190555080600381905550505062000192565b600080fd5b6000819050919050565b620000be81620000a9565b8114620000ca57600080fd5b50565b600081519050620000de81620000b3565b92915050565b60008060408385031215620000fe57620000fd620000a4565b5b60006200010e85828601620000cd565b92505060206200012185828601620000cd565b9150509250929050565b7f4e487b7100000000000000000000000000000000000000000000000000000000600052601260045260246000fd5b60006200016782620000a9565b91506200017483620000a9565b9250826200018757620001866200012b565b5b828204905092915050565b610d9d80620001a26000396000f3fe60806040526004361061009c5760003560e01c8063635edf4011610064578063635edf4014610148578063838ca346146101735780638863dd1a1461019e578063a09b7ae4146101c7578063a77bdb9d146101e3578063d5da20d01461020c5761009c565b8063061b63fd146100a15780632e67c49a146100cc5780633c362d0e146100f75780634e41108d146101135780635a648bc51461013e575b600080fd5b3480156100ad57600080fd5b506100b6610216565b6040516100c391906108c7565b60405180910390f35b3480156100d857600080fd5b506100e16102ae565b6040516100ee91906108c7565b60405180910390f35b610111600480360381019061010c9190610913565b6102b4565b005b34801561011f57600080fd5b50610128610371565b6040516101359190610981565b60405180910390f35b610146610397565b005b34801561015457600080fd5b5061015d61048e565b60405161016a91906108c7565b60405180910390f35b34801561017f57600080fd5b50610188610494565b60405161019591906108c7565b60405180910390f35b3480156101aa57600080fd5b506101c560048036038101906101c091906109c8565b61052a565b005b6101e160048036038101906101dc9190610913565b6105fb565b005b3480156101ef57600080fd5b5061020a60048036038101906102059190610913565b61064d565b005b6102146107d1565b005b60003373ffffffffffffffffffffffffffffffffffffffff1660008054906101000a900473ffffffffffffffffffffffffffffffffffffffff1673ffffffffffffffffffffffffffffffffffffffff16146102a6576040517f08c379a000000000000000000000000000000000000000000000000000000000815260040161029d90610a52565b60405180910390fd5b600454905090565b60015481565b6001600354826102c49190610aa1565b6102ce9190610aa1565b341015610310576040517f08c379a000000000000000000000000000000000000000000000000000000000815260040161030790610b2f565b60405180910390fd5b806004541015610355576040517f08c379a000000000000000000000000000000000000000000000000000000000815260040161034c90610b9b565b60405180910390fd5b80600460008282546103679190610bbb565b9250508190555050565b600560009054906101000a900473ffffffffffffffffffffffffffffffffffffffff1681565b3373ffffffffffffffffffffffffffffffffffffffff1660008054906101000a900473ffffffffffffffffffffffffffffffffffffffff1673ffffffffffffffffffffffffffffffffffffffff1614610425576040517f08c379a000000000000000000000000000000000000000000000000000000000815260040161041c90610a52565b60405180910390fd5b60008054906101000a900473ffffffffffffffffffffffffffffffffffffffff1673ffffffffffffffffffffffffffffffffffffffff166108fc479081150290604051600060405180830381858888f1935050505015801561048b573d6000803e3d6000fd5b50565b60025481565b60003373ffffffffffffffffffffffffffffffffffffffff1660008054906101000a900473ffffffffffffffffffffffffffffffffffffffff1673ffffffffffffffffffffffffffffffffffffffff1614610524576040517f08c379a000000000000000000000000000000000000000000000000000000000815260040161051b90610a52565b60405180910390fd5b47905090565b3373ffffffffffffffffffffffffffffffffffffffff1660008054906101000a900473ffffffffffffffffffffffffffffffffffffffff1673ffffffffffffffffffffffffffffffffffffffff16146105b8576040517f08c379a00000000000000000000000000000000000000000000000000000000081526004016105af90610a52565b60405180910390fd5b806000806101000a81548173ffffffffffffffffffffffffffffffffffffffff021916908373ffffffffffffffffffffffffffffffffffffffff16021790555050565b6001816106089190610aa1565b34101561064a576040517f08c379a000000000000000000000000000000000000000000000000000000000815260040161064190610c3b565b60405180910390fd5b50565b3373ffffffffffffffffffffffffffffffffffffffff1660008054906101000a900473ffffffffffffffffffffffffffffffffffffffff1673ffffffffffffffffffffffffffffffffffffffff16146106db576040517f08c379a00000000000000000000000000000000000000000000000000000000081526004016106d290610a52565b60405180910390fd5b60018054826106ea9190610aa1565b6106f49190610aa1565b471015610736576040517f08c379a000000000000000000000000000000000000000000000000000000000815260040161072d90610ca7565b60405180910390fd5b80600460008282546107489190610cc7565b9250508190555060008054906101000a900473ffffffffffffffffffffffffffffffffffffffff1673ffffffffffffffffffffffffffffffffffffffff166108fc60018054846107989190610aa1565b6107a29190610aa1565b9081150290604051600060405180830381858888f193505050501580156107cd573d6000803e3d6000fd5b5050565b3373ffffffffffffffffffffffffffffffffffffffff1660008054906101000a900473ffffffffffffffffffffffffffffffffffffffff1673ffffffffffffffffffffffffffffffffffffffff161461085f576040517f08c379a000000000000000000000000000000000000000000000000000000000815260040161085690610a52565b60405180910390fd5b6000600454116108a4576040517f08c379a000000000000000000000000000000000000000000000000000000000815260040161089b90610d47565b60405180910390fd5b6000600481905550565b6000819050919050565b6108c1816108ae565b82525050565b60006020820190506108dc60008301846108b8565b92915050565b600080fd5b6108f0816108ae565b81146108fb57600080fd5b50565b60008135905061090d816108e7565b92915050565b600060208284031215610929576109286108e2565b5b6000610937848285016108fe565b91505092915050565b600073ffffffffffffffffffffffffffffffffffffffff82169050919050565b600061096b82610940565b9050919050565b61097b81610960565b82525050565b60006020820190506109966000830184610972565b92915050565b6109a581610960565b81146109b057600080fd5b50565b6000813590506109c28161099c565b92915050565b6000602082840312156109de576109dd6108e2565b5b60006109ec848285016109b3565b91505092915050565b600082825260208201905092915050565b7f4e6f7420746865204f776e657200000000000000000000000000000000000000600082015250565b6000610a3c600d836109f5565b9150610a4782610a06565b602082019050919050565b60006020820190508181036000830152610a6b81610a2f565b9050919050565b7f4e487b7100000000000000000000000000000000000000000000000000000000600052601160045260246000fd5b6000610aac826108ae565b9150610ab7836108ae565b9250828202610ac5816108ae565b91508282048414831517610adc57610adb610a72565b5b5092915050565b7f4e6f7420656e6f756768206d6f6e657920746f206275792073746f636b000000600082015250565b6000610b19601d836109f5565b9150610b2482610ae3565b602082019050919050565b60006020820190508181036000830152610b4881610b0c565b9050919050565b7f436f6d70616e79206973206f7574206f662073746f636b730000000000000000600082015250565b6000610b856018836109f5565b9150610b9082610b4f565b602082019050919050565b60006020820190508181036000830152610bb481610b78565b9050919050565b6000610bc6826108ae565b9150610bd1836108ae565b9250828203905081811115610be957610be8610a72565b5b92915050565b7f4e6f7420456e6f7567682046756e647320706173736564000000000000000000600082015250565b6000610c256017836109f5565b9150610c3082610bef565b602082019050919050565b60006020820190508181036000830152610c5481610c18565b9050919050565b7f4e6f7420656e6f7567682066756e647320746f206275792073746f636b000000600082015250565b6000610c91601d836109f5565b9150610c9c82610c5b565b602082019050919050565b60006020820190508181036000830152610cc081610c84565b9050919050565b6000610cd2826108ae565b9150610cdd836108ae565b9250828201905080821115610cf557610cf4610a72565b5b92915050565b7f4e6f2053746f636b7320746f2073656c6c20746f2062616e6b00000000000000600082015250565b6000610d316019836109f5565b9150610d3c82610cfb565b602082019050919050565b60006020820190508181036000830152610d6081610d24565b905091905056fea26469706673582212205ef7d1583b8d50cb7f0d87cee74d8f12e209bec779fbe40b2b606289d8b50e9364736f6c63430008180033",
  "linkReferences": {},
  "deployedLinkReferences": {}
}