{
  "_format": "hh-sol-artifact-1",
  "contractName": "Bank",
  "sourceName": "contracts/Bank.sol",
  "abi": [
    {
      "inputs": [],
      "stateMutability": "nonpayable",
      "type": "constructor"
    },
    {
      "inputs": [
        {
          "internalType": "uint256",
          "name": "value",
          "type": "uint256"
        },
        {
          "internalType": "address",
          "name": "_toAddress",
          "type": "address"
        }
      ],
      "name": "BuyStock",
      "outputs": [],
      "stateMutability": "payable",
      "type": "function"
    },
    {
      "inputs": [],
      "name": "WithdrawAllToOwner",
      "outputs": [],
      "stateMutability": "payable",
      "type": "function"
    },
    {
      "inputs": [
        {
          "internalType": "uint256",
          "name": "val",
          "type": "uint256"
        }
      ],
      "name": "deposit",
      "outputs": [],
      "stateMutability": "payable",
      "type": "function"
    },
    {
      "inputs": [],
      "name": "owner",
      "outputs": [
        {
          "internalType": "address",
          "name": "",
          "type": "address"
        }
      ],
      "stateMutability": "view",
      "type": "function"
    }
  ],
  "bytecode": "0x608060405234801561001057600080fd5b50336000806101000a81548173ffffffffffffffffffffffffffffffffffffffff021916908373ffffffffffffffffffffffffffffffffffffffff1602179055506105d8806100606000396000f3fe60806040526004361061003f5760003560e01c80634208be3d146100445780635608c8171461004e5780638da5cb5b1461006a578063b6b55f2514610095575b600080fd5b61004c6100b1565b005b61006860048036038101906100639190610345565b6101a8565b005b34801561007657600080fd5b5061007f610242565b60405161008c9190610394565b60405180910390f35b6100af60048036038101906100aa91906103af565b610266565b005b60008054906101000a900473ffffffffffffffffffffffffffffffffffffffff1673ffffffffffffffffffffffffffffffffffffffff163373ffffffffffffffffffffffffffffffffffffffff161461013f576040517f08c379a000000000000000000000000000000000000000000000000000000000815260040161013690610439565b60405180910390fd5b60008054906101000a900473ffffffffffffffffffffffffffffffffffffffff1673ffffffffffffffffffffffffffffffffffffffff166108fc479081150290604051600060405180830381858888f193505050501580156101a5573d6000803e3d6000fd5b50565b6001826101b59190610488565b4710156101f7576040517f08c379a00000000000000000000000000000000000000000000000000000000081526004016101ee90610516565b60405180910390fd5b8073ffffffffffffffffffffffffffffffffffffffff166108fc839081150290604051600060405180830381858888f1935050505015801561023d573d6000803e3d6000fd5b505050565b60008054906101000a900473ffffffffffffffffffffffffffffffffffffffff1681565b803410156102a9576040517f08c379a00000000000000000000000000000000000000000000000000000000081526004016102a090610582565b60405180910390fd5b50565b600080fd5b6000819050919050565b6102c4816102b1565b81146102cf57600080fd5b50565b6000813590506102e1816102bb565b92915050565b600073ffffffffffffffffffffffffffffffffffffffff82169050919050565b6000610312826102e7565b9050919050565b61032281610307565b811461032d57600080fd5b50565b60008135905061033f81610319565b92915050565b6000806040838503121561035c5761035b6102ac565b5b600061036a858286016102d2565b925050602061037b85828601610330565b9150509250929050565b61038e81610307565b82525050565b60006020820190506103a96000830184610385565b92915050565b6000602082840312156103c5576103c46102ac565b5b60006103d3848285016102d2565b91505092915050565b600082825260208201905092915050565b7f4e6f7420746865206f776e657200000000000000000000000000000000000000600082015250565b6000610423600d836103dc565b915061042e826103ed565b602082019050919050565b6000602082019050818103600083015261045281610416565b9050919050565b7f4e487b7100000000000000000000000000000000000000000000000000000000600052601160045260246000fd5b6000610493826102b1565b915061049e836102b1565b92508282026104ac816102b1565b915082820484148315176104c3576104c2610459565b5b5092915050565b7f42616e6b2069732042616e6b7272757074000000000000000000000000000000600082015250565b60006105006011836103dc565b915061050b826104ca565b602082019050919050565b6000602082019050818103600083015261052f816104f3565b9050919050565b7f53756666696369656e742066756e6473206e6f74207061737365640000000000600082015250565b600061056c601b836103dc565b915061057782610536565b602082019050919050565b6000602082019050818103600083015261059b8161055f565b905091905056fea26469706673582212202f5f0d66eac9ced2f4b0cdfdc0ff4b7e984d434cdf490726c5935b029f47a76364736f6c63430008180033",
  "linkReferences": {},
  "deployedLinkReferences": {}
}