{
  "_format": "hh-sol-artifact-1",
  "contractName": "Bank",
  "sourceName": "contracts/Bank.sol",
  "abi": [
    {
      "inputs": [],
      "stateMutability": "nonpayable",
      "type": "constructor"
    },
    {
      "inputs": [
        {
          "internalType": "uint256",
          "name": "value",
          "type": "uint256"
        },
        {
          "internalType": "address",
          "name": "_toAddress",
          "type": "address"
        }
      ],
      "name": "BuyStock",
      "outputs": [],
      "stateMutability": "payable",
      "type": "function"
    },
    {
      "inputs": [
        {
          "internalType": "address",
          "name": "to",
          "type": "address"
        }
      ],
      "name": "WithdrawAllToOwner",
      "outputs": [],
      "stateMutability": "payable",
      "type": "function"
    },
    {
      "inputs": [
        {
          "internalType": "uint256",
          "name": "val",
          "type": "uint256"
        }
      ],
      "name": "deposit",
      "outputs": [],
      "stateMutability": "payable",
      "type": "function"
    },
    {
      "inputs": [],
      "name": "owner",
      "outputs": [
        {
          "internalType": "address",
          "name": "",
          "type": "address"
        }
      ],
      "stateMutability": "view",
      "type": "function"
    }
  ],
  "bytecode": "0x608060405234801561001057600080fd5b50336000806101000a81548173ffffffffffffffffffffffffffffffffffffffff021916908373ffffffffffffffffffffffffffffffffffffffff1602179055506105f8806100606000396000f3fe60806040526004361061003f5760003560e01c806330cdd4b7146100445780635608c817146100605780638da5cb5b1461007c578063b6b55f25146100a7575b600080fd5b61005e60048036038101906100599190610302565b6100c3565b005b61007a60048036038101906100759190610365565b61019b565b005b34801561008857600080fd5b50610091610235565b60405161009e91906103b4565b60405180910390f35b6100c160048036038101906100bc91906103cf565b610259565b005b60008054906101000a900473ffffffffffffffffffffffffffffffffffffffff1673ffffffffffffffffffffffffffffffffffffffff163373ffffffffffffffffffffffffffffffffffffffff1614610151576040517f08c379a000000000000000000000000000000000000000000000000000000000815260040161014890610459565b60405180910390fd5b8073ffffffffffffffffffffffffffffffffffffffff166108fc479081150290604051600060405180830381858888f19350505050158015610197573d6000803e3d6000fd5b5050565b6001826101a891906104a8565b4710156101ea576040517f08c379a00000000000000000000000000000000000000000000000000000000081526004016101e190610536565b60405180910390fd5b8073ffffffffffffffffffffffffffffffffffffffff166108fc839081150290604051600060405180830381858888f19350505050158015610230573d6000803e3d6000fd5b505050565b60008054906101000a900473ffffffffffffffffffffffffffffffffffffffff1681565b8034101561029c576040517f08c379a0000000000000000000000000000000000000000000000000000000008152600401610293906105a2565b60405180910390fd5b50565b600080fd5b600073ffffffffffffffffffffffffffffffffffffffff82169050919050565b60006102cf826102a4565b9050919050565b6102df816102c4565b81146102ea57600080fd5b50565b6000813590506102fc816102d6565b92915050565b6000602082840312156103185761031761029f565b5b6000610326848285016102ed565b91505092915050565b6000819050919050565b6103428161032f565b811461034d57600080fd5b50565b60008135905061035f81610339565b92915050565b6000806040838503121561037c5761037b61029f565b5b600061038a85828601610350565b925050602061039b858286016102ed565b9150509250929050565b6103ae816102c4565b82525050565b60006020820190506103c960008301846103a5565b92915050565b6000602082840312156103e5576103e461029f565b5b60006103f384828501610350565b91505092915050565b600082825260208201905092915050565b7f4e6f7420746865206f776e657200000000000000000000000000000000000000600082015250565b6000610443600d836103fc565b915061044e8261040d565b602082019050919050565b6000602082019050818103600083015261047281610436565b9050919050565b7f4e487b7100000000000000000000000000000000000000000000000000000000600052601160045260246000fd5b60006104b38261032f565b91506104be8361032f565b92508282026104cc8161032f565b915082820484148315176104e3576104e2610479565b5b5092915050565b7f42616e6b2069732042616e6b7272757074000000000000000000000000000000600082015250565b60006105206011836103fc565b915061052b826104ea565b602082019050919050565b6000602082019050818103600083015261054f81610513565b9050919050565b7f53756666696369656e742066756e6473206e6f74207061737365640000000000600082015250565b600061058c601b836103fc565b915061059782610556565b602082019050919050565b600060208201905081810360008301526105bb8161057f565b905091905056fea264697066735822122002c402e440f75461d4bbb2b4267a4042a8c21051ad6ad205da64fd440e80c69c64736f6c63430008180033",
  "linkReferences": {},
  "deployedLinkReferences": {}
}